:020000040800F2
:1000000000180020710D00080D0D0008150D0008E6
:100010001D0D0008250D00082D0D00080000000032
:10002000000000000000000000000000350D000886
:10003000410D0008000000004D0D0008590D00089A
:10004000B90D0008B90D0008B90D0008B90D000878
:10005000B90D0008B90D0008B90D0008B90D000868
:10006000B90D0008B90D0008B90D0008B90D000858
:10007000B90D0008B90D0008B90D0008B90D000848
:10008000B90D0008B90D0008B90D0008B90D000838
:10009000B90D0008B90D0008B90D0008B90D000828
:1000A000B90D0008B90D0008B90D0008B90D000818
:1000B000B90D0008B90D000800000000B90D0008D6
:1000C000B90D00080000000000000000B90D000894
:1000D00000000000B90D0008B90D00080000000084
:1000E000B90D0008B90D0008B90D000800000000A6
:1000F0000000000000000000000000000000000000
:0C01000000000000000000005FF808F1A3
:10010C0010B5054C237833B9044B13B10448AFF345
:10011C0000800123237010BD0C00002000000000A3
:10012C00FC1B000808B5034B1BB103490348AFF394
:10013C00008008BD0000000010000020FC1B00081F
:10014C0080B483B000AF786002E07B68013B7B60D9
:10015C007B68002BF9D100BF00BF0C37BD4680BCBB
:10016C00704780B500AF4FF47A70FFF7E9FF00BF1E
:10017C0080BD000080B582B000AF0346FB71574BC9
:10018C0004225A61554B02225A61544B10225A6177
:10019C00524B20225A61514B40225A614F4B8022C4
:1001AC005A61FFF7DEFF4D4BDB684C4A43F002030C
:1001BC00D360FB7903F01003002B03D0474B1022C4
:1001CC001A6103E0454B4FF480121A61FB7903F07E
:1001DC002003002B03D0414B20221A6103E03F4B3C
:1001EC004FF400121A61FB7903F04003002B03D08B
:1001FC003A4B40221A6103E0384B4FF480021A61EB
:10020C0097F90730002B03DA344B80221A6103E094
:10021C00324B4FF400021A61FFF7A3FF2F4B02225F
:10022C005A612E4B10225A612C4B20225A612B4BB7
:10023C0040225A61294B80225A61FFF792FF274BCB
:10024C00DB68264A43F00203D360FB7903F0010319
:10025C00002B03D0214B10221A6103E01F4B4FF4EB
:10026C0080121A61FB7903F00203002B03D01B4BA5
:10027C0020221A6103E0194B4FF400121A61FB792A
:10028C0003F00403002B03D0144B40221A6103E04B
:10029C00124B4FF480021A61FB7903F00803002B18
:1002AC0003D00E4B80221A6103E00C4B4FF400027A
:1002BC001A61FFF756FF094B02225A61074B1022B5
:1002CC005A61064B20225A61044B40225A61034B5F
:1002DC0080225A6100BF0837BD4680BD000801402E
:1002EC0080B582B000AF0346FB71594BDB68584AAE
:1002FC0043F00403D360564B02225A61544B102234
:10030C005A61534B20225A61514B40225A61504B37
:10031C0080225A61FFF725FF4D4BDB684C4A43F0B6
:10032C000203D360FB7903F01003002B03D0484B7E
:10033C0010221A6103E0464B4FF480121A61FB79CC
:10034C0003F02003002B03D0414B20221A6103E061
:10035C003F4B4FF400121A61FB7903F04003002B62
:10036C0003D03B4B40221A6103E0394B4FF480021F
:10037C001A6197F90730002B03DA354B80221A618A
:10038C0003E0334B4FF400021A61FFF7EAFE304BE7
:10039C0002225A612E4B10225A612D4B20225A6197
:1003AC002B4B40225A612A4B80225A61FFF7D9FE0F
:1003BC00274BDB68264A43F00203D360FB7903F03A
:1003CC000103002B03D0224B10221A6103E0204BB7
:1003DC004FF480121A61FB7903F00203002B03D057
:1003EC001B4B20221A6103E0194B4FF400121A61C7
:1003FC00FB7903F00403002B03D0154B40221A6148
:10040C0003E0134B4FF480021A61FB7903F00803ED
:10041C00002B03D00E4B80221A6103E00C4B4FF4DF
:10042C0000021A61FFF79DFE094B02225A61084B2C
:10043C0010225A61064B20225A61054B40225A6108
:10044C00034B80225A6100BF0837BD4680BD00BFF8
:10045C000008014080B582B000AF786008E0FFF77B
:10046C0080FE7B685A1C7A601B781846FFF738FFB1
:10047C007B681B78002BF2D1FFF773FE00BF0837A7
:10048C00BD4680BD80B582B000AF0346FB710B4604
:10049C00BB7113467B71FA2000F0ECFC0220FFF7D5
:1004AC0069FE322000F0E6FCFA79BB791343DAB22C
:1004BC007B791343DBB243F02003DBB21846FFF722
:1004CC0059FE322000F0D6FC0620FFF753FE3220F6
:1004DC0000F0D0FC0E20FFF74DFE322000F0CAFCDD
:1004EC000C20FFF747FE322000F0C4FC0120FFF780
:1004FC0041FE642000F0BEFC00BF0837BD4680BD45
:10050C0080B582B000AF03460A46FB711346BB713F
:10051C00FB79012B06D1BB797F33DBB21846FFF791
:10052C0029FE08E0FB79022B05D1BB79413BDBB2FC
:10053C001846FFF71FFE00BF0837BD4680BD80B5CB
:10054C0082B000AF03463A60FB710B46BB71BA79BF
:10055C00FB7911461846FFF7D3FF3868FFF77AFF8F
:10056C0000BF0837BD4680BD80B500AF0120FFF746
:10057C0001FE022000F07EFC00BF80BD80B500AF04
:10058C0001220121044800F010FF00220221024840
:10059C0000F00BFF00BF80BD000C014080B500AF28
:1005AC0000220121044800F000FF01220221024830
:1005BC0000F0FBFE00BF80BD000C014080B500AF19
:1005CC0000220121044800F0F0FE00220221024822
:1005DC0000F0EBFE00BF80BD000C014080B588B080
:1005EC0000AF00F0E5FB00F0A3FA00F0E3FA0822FC
:1005FC0000210020FFF746FF0620FFF7BBFD9F4AB6
:10060C0001210120FFF79BFF0123FB619C4A3B1D4D
:10061C0092E803001860043319700A2000F02AFCD9
:10062C0000220121974800F0C0FE002202219548CB
:10063C0000F0BBFE00224021924800F0B6FE0022E2
:10064C008021904800F0B1FE00224FF480718D485B
:10065C0000F0ABFE012240218A4800F0A6FE0022E9
:10066C008021884800F0A1FE00224FF4807185485B
:10067C0000F09BFE4FF48041824800F07FFE034661
:10068C00002B1AD000BF4FF480417E4800F076FE5C
:10069C000346002BF7D1FB69DBB27B4A19460220DB
:1006AC00FFF74DFFFB69013B20333B44312203F83C
:1006BC00142CFB690133FB6167E04FF40051714866
:1006CC0000F05CFE0346002B1AD000BF4FF4005123
:1006DC006C4800F053FE0346002BF7D1FB69DBB2EC
:1006EC006A4A19460220FFF72AFFFB69013B2033B7
:1006FC003B44342203F8142CFB690133FB6144E0C6
:10070C004FF480515F4800F039FE0346002B1AD09D
:10071C0000BF4FF480515B4800F030FE0346002BC5
:10072C00F7D1FB69DBB25A4A19460220FFF707FFE3
:10073C00FB69013B20333B44372203F8142CFB6943
:10074C000133FB6121E04FF400614E4800F016FECE
:10075C000346002B19D000BF4FF40061494800F04C
:10076C000DFE0346002BF7D1FB69DBB2494A194653
:10077C000220FFF7E4FEFB69013B20333B442A22B5
:10078C0003F8142CFB690133FB61002240213D4826
:10079C0000F00BFE012280213A4800F006FE0022F8
:1007AC004FF48071374800F000FE4FF4804135481B
:1007BC0000F0E4FD0346002B1AD000BF4FF480413B
:1007CC00304800F0DBFD0346002BF7D1FB69DBB2B0
:1007DC00314A19460220FFF7B2FEFB69013B203378
:1007EC003B44322203F8142CFB690133FB617BE0A0
:1007FC004FF40051234800F0C1FD0346002B1AD0E2
:10080C0000BF4FF400511F4800F0B8FD0346002B09
:10081C00F7D1FB69DBB2214A19460220FFF78FFEA4
:10082C00FB69013B20333B44352203F8142CFB6954
:10083C000133FB6158E04FF48051124800F09EFDEB
:10084C000346002B2ED000BF4FF480510D4800F012
:10085C0095FD0346002BF7D1FB69DBB2104A194614
:10086C000220FFF76CFEFB69013B20333B4438222E
:10087C0003F8142CFB690133FB6135E0141C0008F0
:10088C00941C0008000C0140241C0008281C0008C3
:10089C002C1C0008301C0008341C0008381C0008F4
:1008AC003C1C00084FF40061964800F067FD0346BD
:1008BC00002B19D000BF4FF40061924800F05EFD90
:1008CC000346002BF7D1FB69DBB28F4A1946022095
:1008DC00FFF735FEFB69013B20333B44302203F824
:1008EC00142CFB690133FB6100224021854800F088
:1008FC005CFD00228021834800F057FD01224FF45B
:10090C008071804800F051FD4FF480417D4800F02B
:10091C0035FD0346002B1AD000BF4FF480417948B7
:10092C0000F02CFD0346002BF7D1FB69DBB2774AB4
:10093C0019460220FFF703FEFB69013B20333B44C1
:10094C00332203F8142CFB690133FB6167E04FF48D
:10095C0000516C4800F012FD0346002B1AD000BF6A
:10096C004FF40051674800F009FD0346002BF7D106
:10097C00FB69DBB2664A19460220FFF7E0FDFB6912
:10098C00013B20333B44362203F8142CFB69013322
:10099C00FB6144E04FF480515A4800F0EFFC0346F1
:1009AC00002B1AD000BF4FF48051564800F0E6FCE3
:1009BC000346002BF7D1FB69DBB2564A19460220DD
:1009CC00FFF7BDFDFB69013B20333B44392203F8A3
:1009DC00142CFB690133FB6121E04FF400614948A1
:1009EC0000F0CCFC0346002B19D000BF4FF4006183
:1009FC00444800F0C3FC0346002BF7D1FB69DBB283
:100A0C00454A19460220FFF79AFDFB69013B20334A
:100A1C003B44232203F8142CFB690133FB61FB6973
:100A2C00062B7FF417AE0023BB6166E007F10C02C6
:100A3C00BB6913441A78391DBB690B441B789A4265
:100A4C0019D0FFF791FD354A01210120FFF777FD01
:100A5C00334A01210220FFF772FD4FF4FA6000F0D7
:100A6C0009FAFFF781FD2F4A01210120FFF767FDED
:100A7C000123FB6144E0BB69042B3BD1FFF774FD00
:100A8C00294A01210120FFF75AFD4FF47A7000F03A
:100A9C00F1F9264A01210220FFF751FDFFF76EFD07
:100AAC0040F6B83000F0E6F9FFF788FD4FF47A70A5
:100ABC0000F0E0F9FFF772FD40F6B83000F0DAF91B
:100ACC00FFF77CFD00237B6108E007F10C027B69DA
:100ADC00134400221A707B6901337B617B69042B00
:100AEC00F3DDFFF741FD0F4A01210120FFF727FD40
:100AFC000123FB61BB690133BB61BB69042B95DD31
:100B0C00A8E500BF000C0140401C0008441C000874
:100B1C00481C00084C1C0008501C0008541C000801
:100B2C00641C0008141C0008701C0008841C0008BD
:100B3C0080B590B000AF07F11803282200211846A9
:100B4C0001F02AF83B1D00221A605A609A60DA60A4
:100B5C001A610223BB610123BB621023FB620223D7
:100B6C007B630023BB634FF4C013FB6307F11803D3
:100B7C00184600F033FC0346002B01D000F088F837
:100B8C000F237B600223BB600023FB604FF4806368
:100B9C003B6100237B613B1D0121184600F0A0FE48
:100BAC000346002B01D000F073F800BF4037BD4660
:100BBC0080BD000080B588B000AF07F110030022A3
:100BCC001A605A609A60DA602E4B9B692D4A43F08A
:100BDC00200393612B4B9B6903F02003FB60FB68A4
:100BEC00284B9B69274A43F004039361254B9B696F
:100BFC0003F00403BB60BB68224B9B69214A43F0A2
:100C0C00080393611F4B9B6903F008037B607B68AF
:100C1C000022F6211C4800F0C8FB002240F2C31150
:100C2C001A4800F0C2FBF6233B6101237B610023D1
:100C3C00BB610223FB6107F110031946124800F057
:100C4C0021FA40F2C3133B6101237B610023BB619A
:100C5C000223FB6107F1100319460C4800F012FA4D
:100C6C004FF4F0433B6100237B610023BB6107F130
:100C7C0010031946054800F005FA00BF2037BD46A1
:100C8C0080BD00BF0010024000080140000C014074
:100C9C0080B400AF72B600BF00BFFDE780B485B072
:100CAC0000AF154B9B69144A43F001039361124B3F
:100CBC009B6903F00103BB60BB680F4BDB690E4AF9
:100CCC0043F08053D3610C4BDB6903F080537B60A2
:100CDC007B680A4B5B68FB60FB6823F0E063FB609E
:100CEC00FB6843F00073FB60044AFB68536000BF71
:100CFC001437BD4680BC7047001002400000014014
:100D0C0080B400AF00BFFDE780B400AF00BFFDE7CB
:100D1C0080B400AF00BFFDE780B400AF00BFFDE7BB
:100D2C0080B400AF00BFFDE780B400AF00BFBD468C
:100D3C0080BC704780B400AF00BFBD4680BC70471C
:100D4C0080B400AF00BFBD4680BC704780B500AF1B
:100D5C0000F074F800BF80BD80B400AF00BFBD468A
:100D6C0080BC7047FFF7F8FF0B480C490C4A002376
:100D7C0002E0D458C4500433C4188C42F9D3094A45
:100D8C00094C002301E013600432A242FBD300F0B3
:100D9C000BFFFFF723FC7047000000200C00002025
:100DAC00C81C00080C0000202C000020FEE70000EE
:100DBC0080B500AF084B1B68074A43F01003136063
:100DCC00032000F02BF90F2000F008F8FFF766FF66
:100DDC000023184680BD00BF0020024080B582B0C1
:100DEC0000AF7860124B1A68124B1B7819464FF4FF
:100DFC007A73B3FBF1F3B2FBF3F3184600F035F959
:100E0C000346002B01D001230EE07B680F2B0AD880
:100E1C00002279684FF0FF3000F00BF9064A7B682E
:100E2C001360002300E0012318460837BD4680BD3F
:100E3C0000000020080000200400002080B400AF57
:100E4C00054B1B781A46054B1B681344034A136069
:100E5C0000BFBD4680BC7047080000202800002061
:100E6C0080B400AF024B1B681846BD4680BC70476F
:100E7C002800002080B584B000AF7860FFF7F0FF49
:100E8C00B8607B68FB60FB68B3F1FF3F05D00A4B91
:100E9C001B781A46FB681344FB6000BFFFF7E0FFAA
:100EAC000246BB68D31AFA689A42F7D800BF00BF53
:100EBC001037BD4680BD00BF0800002080B485B04F
:100ECC0000AF78607B6803F00703FB600C4BDB68BA
:100EDC00BB60BA684FF6FF031340BB60FB681A0295
:100EEC00BB68134343F0BF6343F40033BB60044A55
:100EFC00BB68D36000BF1437BD4680BC704700BFD1
:100F0C0000ED00E080B400AF044BDB681B0A03F07B
:100F1C0007031846BD4680BC704700BF00ED00E0DB
:100F2C0080B483B000AF03463960FB7197F907308A
:100F3C00002B0ADB3B68DAB20C4997F90730120137
:100F4C00D2B20B4483F800230AE03B68DAB20849BA
:100F5C00FB7903F00F03043B1201D2B20B441A7657
:100F6C0000BF0C37BD4680BC704700BF00E100E0FD
:100F7C0000ED00E080B489B000AFF860B9607A6031
:100F8C00FB6803F00703FB61FB69C3F10703042B48
:100F9C0028BF0423BB61FB690433062B02D9FB6910
:100FAC00033B00E000237B614FF0FF32BB6902FA88
:100FBC0003F3DA43BB681A407B699A404FF0FF3168
:100FCC007B6901FA03F3D9437B680B401343184642
:100FDC002437BD4680BC704780B582B000AF7860C6
:100FEC007B68013BB3F1807F01D301230FE00A4AF8
:100FFC007B68013B53600F214FF0FF30FFF790FFF0
:10100C00054B00229A60044B07221A6000231846F5
:10101C000837BD4680BD00BF10E000E080B582B04F
:10102C0000AF78607868FFF749FF00BF0837BD460E
:10103C0080BD80B586B000AF0346B9607A60FB73A3
:10104C0000237B61FFF75EFF78617A68B968786985
:10105C00FFF790FF024697F90F3011461846FFF73D
:10106C005FFF00BF1837BD4680BD80B582B000AFB2
:10107C0078607868FFF7B0FF034618460837BD461E
:10108C0080BD000080B48BB000AF78603960002365
:10109C007B6200233B6261E101227B6A02FA03F36B
:1010AC00FB613B681B68FA691340BB61BA69FB6959
:1010BC009A4240F050813B685B68974A93425ED0FD
:1010CC00954A934275D8954A934258D0934A934285
:1010DC006FD8934A934252D0914A934269D8914A1D
:1010EC0093424CD08F4A934263D88F4A934246D056
:1010FC008D4A93425DD8122B2AD8122B59D801A2B3
:10110C0052F823F08B1100086511000877110008C4
:10111C00B9110008BF110008BF110008BF11000869
:10112C00BF110008BF110008BF110008BF11000853
:10113C00BF110008BF110008BF110008BF11000843
:10114C00BF110008BF1100086D11000881110008C3
:10115C00764A934213D02CE03B68DB683B6229E073
:10116C003B68DB6804333B6224E03B68DB68083394
:10117C003B621FE03B68DB680C333B621AE03B6868
:10118C009B68002B02D104233B6213E03B689B68F5
:10119C00012B05D108233B627B68FA691A6109E0CF
:1011AC0008233B627B68FA695A6103E000233B62C7
:1011BC0000E000BFBB69FF2B01D87B6801E07B68B6
:1011CC0004337B61BB69FF2B02D87B6A9B0002E076
:1011DC007B6A083B9B003B617B691A680F213B696A
:1011EC0001FA03F3DB431A40396A3B6901FA03F352
:1011FC001A437B691A603B685B6803F08053002BD1
:10120C0000F0A9804A4B9B69494A43F00103936162
:10121C00474B9B6903F00103BB60BB68454A7B6A83
:10122C009B08023352F82330FB607B6A03F0030304
:10123C009B000F2202FA03F3DB43FA681340FB60B6
:10124C007B683D4A93420DD07B683C4A934207D061
:10125C007B683B4A934201D1022304E0032302E062
:10126C00012300E000237A6A02F00302920093400B
:10127C00FA681343FB602F497B6A9B080233FA68B8
:10128C0041F823203B685B6803F48013002B06D0E5
:10129C002C4B9A682B49BB6913438B6006E0294B96
:1012AC009A68BB69DB43274913408B603B685B68DA
:1012BC0003F40013002B06D0224BDA682149BB69DA
:1012CC001343CB6006E01F4BDA68BB69DB431D4957
:1012DC001340CB603B685B6803F40033002B06D0F3
:1012EC00184B5A681749BB6913434B6006E0154B02
:1012FC005A68BB69DB43134913404B603B685B681E
:10130C0003F48033002B1FD00E4B1A680D49BB69B8
:10131C0013430B601FE000BF0000321000003110BF
:10132C00000022100000211000001210000011100B
:10133C00001002400000014000080140000C014078
:10134C0000100140000401400B4B1A68BB69DB43E1
:10135C00094913400B607B6A01337B623B681A6856
:10136C007B6A22FA03F3002B7FF496AE00BF00BF1A
:10137C002C37BD4680BC70470004014080B485B05A
:10138C0000AF78600B467B807B689A687B88134043
:10139C00002B02D00123FB7301E00023FB73FB7BCA
:1013AC0018461437BD4680BC704780B483B000AF7C
:1013BC0078600B467B8013467B707B78002B03D0C8
:1013CC007A887B681A6103E07B881A047B681A614F
:1013DC0000BF0C37BD4680BC7047000080B586B09E
:1013EC0000AF78607B68002B01D1012372E27B682F
:1013FC001B6803F00103002B00F08780924B5B68A5
:10140C0003F00C03042B0CD08F4B5B6803F00C0324
:10141C00082B12D18C4B5B6803F48033B3F5803FFF
:10142C000BD1894B1B6803F40033002B6CD07B6809
:10143C005B68002B68D101234CE27B685B68B3F5D9
:10144C00803F06D1804B1B687F4A43F48033136086
:10145C002EE07B685B68002B0CD17B4B1B687A4AB7
:10146C0023F480331360784B1B68774A23F4802372
:10147C0013601DE07B685B68B3F5A02F0CD1724B39
:10148C001B68714A43F4802313606F4B1B686E4AD0
:10149C0043F4803313600BE06B4B1B686A4A23F4F4
:1014AC0080331360684B1B68674A23F480231360F6
:1014BC007B685B68002B13D0FFF7D2FC386108E027
:1014CC00FFF7CEFC02463B69D31A642B01D90323E8
:1014DC0000E25D4B1B6803F40033002BF0D014E0EA
:1014EC00FFF7BEFC386108E0FFF7BAFC02463B6927
:1014FC00D31A642B01D90323ECE1534B1B6803F47F
:10150C000033002BF0D100E000BF7B681B6803F0B8
:10151C000203002B63D04C4B5B6803F00C03002BD5
:10152C000BD0494B5B6803F00C03082B1CD1464BCA
:10153C005B6803F48033002B16D1434B1B6803F01C
:10154C000203002B05D07B681B69012B01D0012302
:10155C00C0E13D4B1B6823F0F8027B685B69DB0044
:10156C00394913430B603AE07B681B69002B20D090
:10157C00364B01221A60FFF773FC386108E0FFF765
:10158C006FFC02463B69D31A022B01D90323A1E15C
:10159C002D4B1B6803F00203002BF0D02A4B1B6869
:1015AC0023F0F8027B685B69DB00274913430B606F
:1015BC0015E0264B00221A60FFF752FC386108E058
:1015CC00FFF74EFC02463B69D31A022B01D90323C9
:1015DC0080E11D4B1B6803F00203002BF0D17B68EC
:1015EC001B6803F00803002B3AD07B689B69002B27
:1015FC0019D0174B01221A60FFF732FC386108E052
:10160C00FFF72EFC02463B69D31A022B01D90323A8
:10161C0060E10D4B5B6A03F00203002BF0D001205C
:10162C0000F09CFA1CE00A4B00221A60FFF718FC31
:10163C0038610FE0FFF714FC02463B69D31A022B0A
:10164C0008D9032346E100BF0010024000004242CB
:10165C0080044242924B5B6A03F00203002BE9D1F7
:10166C007B681B6803F00403002B00F0A6800023AA
:10167C00FB758B4BDB6903F08053002B0DD1884B32
:10168C00DB69874A43F08053D361854BDB6903F0F8
:10169C008053BB60BB680123FB75824B1B6803F452
:1016AC008073002B18D17F4B1B687E4A43F48073E8
:1016BC001360FFF7D5FB386108E0FFF7D1FB02465A
:1016CC003B69D31A642B01D9032303E1754B1B68C7
:1016DC0003F48073002BF0D07B68DB68012B06D100
:1016EC006F4B1B6A6E4A43F0010313622DE07B685B
:1016FC00DB68002B0CD16A4B1B6A694A23F001038F
:10170C001362674B1B6A664A23F0040313621CE0E6
:10171C007B68DB68052B0CD1614B1B6A604A43F07C
:10172C00040313625E4B1B6A5D4A43F001031362B0
:10173C000BE05B4B1B6A5A4A23F001031362584BB4
:10174C001B6A574A23F0040313627B68DB68002B87
:10175C0015D0FFF785FB38610AE0FFF781FB0246E5
:10176C003B69D31A41F28832934201D90323B1E089
:10177C004B4B1B6A03F00203002BEED014E0FFF777
:10178C006FFB38610AE0FFF76BFB02463B69D31A2B
:10179C0041F28832934201D903239BE0404B1B6AF0
:1017AC0003F00203002BEED1FB7D012B05D13C4B4A
:1017BC00DB693B4A23F08053D3617B68DB69002BE8
:1017CC0000F08780364B5B6803F00C03082B61D06C
:1017DC007B68DB69022B46D1334B00221A60FFF782
:1017EC003FFB386108E0FFF73BFB02463B69D31A2D
:1017FC00022B01D903236DE0294B1B6803F0007306
:10180C00002BF0D17B681B6AB3F5803F08D1244BC9
:10181C005B6823F400327B689B68214913434B605F
:10182C001F4B5B6823F474127B68196A7B685B6AD4
:10183C000B431B4913434B601B4B01221A60FFF7F0
:10184C000FFB386108E0FFF70BFB02463B69D31A2C
:10185C00022B01D903233DE0114B1B6803F00073ED
:10186C00002BF0D035E0104B00221A60FFF7F8FA8D
:10187C00386108E0FFF7F4FA02463B69D31A022BF1
:10188C0001D9032326E0064B1B6803F00073002BE1
:10189C00F0D11EE07B68DB69012B07D1012319E035
:1018AC000010024000700040600042420B4B5B682D
:1018BC00FB60FB6803F480327B681B6A9A4206D19A
:1018CC00FB6803F470127B685B6A9A4201D00123B7
:1018DC0000E0002318461837BD4680BD00100240BA
:1018EC0080B584B000AF786039607B68002B01D183
:1018FC000123D0E06A4B1B6803F007033A689A4255
:10190C0010D9674B1B6823F0070265493B681343EA
:10191C000B60634B1B6803F007033A689A4201D0D3
:10192C000123B8E07B681B6803F00203002B20D076
:10193C007B681B6803F00403002B05D0594B5B68D4
:10194C00584A43F4E06353607B681B6803F0080358
:10195C00002B05D0534B5B68524A43F460535360E1
:10196C00504B5B6823F0F0027B689B684D49134336
:10197C004B607B681B6803F00103002B40D07B6835
:10198C005B68012B07D1474B1B6803F40033002B1A
:10199C0015D101237FE07B685B68022B07D1414B9B
:1019AC001B6803F00073002B09D1012373E03D4B3E
:1019BC001B6803F00203002B01D101236BE0394BB0
:1019CC005B6823F003027B685B68364913434B600A
:1019DC00FFF746FAF8600AE0FFF742FA0246FB68A6
:1019EC00D31A41F28832934201D9032353E02D4B91
:1019FC005B6803F00C027B685B689B009A42EBD13E
:101A0C00274B1B6803F007033A689A4210D2244B09
:101A1C001B6823F0070222493B6813430B60204BE1
:101A2C001B6803F007033A689A4201D0012332E0A5
:101A3C007B681B6803F00403002B08D0194B5B6810
:101A4C0023F4E0627B68DB68164913434B607B68C8
:101A5C001B6803F00803002B09D0124B5B6823F4BE
:101A6C0060527B681B69DB000E4913434B6000F02E
:101A7C0021F802460B4B5B681B0903F00F030A4964
:101A8C00CB5C22FA03F3094A1360094B1B68184616
:101A9C00FFF7A4F9002318461037BD4680BD00BFE0
:101AAC0000200240001002409C1C00080000002096
:101ABC000400002080B487B000AF0023FB6000233B
:101ACC00BB6000237B6100237B6000233B611E4BCA
:101ADC005B68FB60FB6803F00C03042B02D0082B43
:101AEC0003D027E0194B3B6127E0FB689B0C03F00C
:101AFC000F03174AD35C7B60FB6803F48033002B25
:101B0C0010D0114B5B685B0C03F00103114AD35CE2
:101B1C00BB607B680D4A03FB02F2BB68B2FBF3F3BC
:101B2C007B6104E07B680C4A02FB03F37B617B69FD
:101B3C003B6102E0054B3B6100BF3B6918461C371B
:101B4C00BD4680BC704700BF0010024000127A00F6
:101B5C00AC1C0008BC1C000800093D0080B485B01A
:101B6C0000AF78600A4B1B680A4AA2FB03235B0A8E
:101B7C007A6802FB03F3FB6000BFFB685A1EFA6035
:101B8C00002BF9D100BF00BF1437BD4680BC704795
:101B9C0000000020D34D621003460244934200D152
:101BAC00704703F8011BF9E770B500260C4D0D4C7E
:101BBC00641BA410A64209D100F01AF800260A4DA5
:101BCC000A4C641BA410A64205D170BD55F8043B09
:101BDC0098470136EEE755F8043B98470136F2E793
:101BEC00C01C0008C01C0008C01C0008C41C000855
:101BFC00F8B500BFF8BC08BC9E467047F8B500BFEE
:081C0C00F8BC08BC9E467047BD
:101C1400456E7465722050617373776F72642E0021
:101C24003100000034000000370000002A000000EA
:101C340032000000350000003800000030000000D1
:101C440033000000360000003900000023000000CB
:101C540057726F6E672050617373776F72642100DF
:101C640054727920616761696E2E0000436F72724D
:101C74006563742050617373776F72642100000090
:101C8400456E74657220506C6561736521000000B7
:101C94003132333435000000000000000000000041
:101CA40001020304060708090203040506070809DC
:0C1CB4000A0B0C0D0E0F101001020000B6
:041CC00031010008E6
:041CC4000D01000806
:0C1CC80000127A00100000000100000073
:0400000508000D7171
:00000001FF
